:020000040800F2
:1000000000000120617C0008617900086379000824
:100010006579000867790008697900080000000028
:100020000000000000000000000000006B790008E4
:100030006D790008000000006F79000871790008F0
:10004000B17C0008B17C0008B17C0008B17C0008DC
:10005000B17C0008B17C0008B17C0008B17C0008CC
:10006000B17C0008B17C0008B17C0008B17C0008BC
:10007000B17C0008B17C000875790008817900081E
:100080008D79000899790008B17C0008B17C0008DE
:10009000B17C0008B17C0008B17C0008B17C00088C
:1000A000B17C0008A5790008B17C0008B17C00088B
:1000B000B17C0008B17C0008B17C0008B17C00086C
:1000C000B17C0008B1790008B17C0008B17C00085F
:1000D000BD790008B17C0008C9790008B17C00082E
:1000E000B17C0008B17C0008B17C0008B17C00083C
:1000F000B17C0008B17C0008B17C0008B17C00082C
:10010000B17C00080000000000000000B17C000885
:10011000B17C0008B17C0008B17C0008B17C00080B
:10012000B17C0008B17C0008B17C0008B17C0008FB
:10013000B17C0008B17C0008000000000000000055
:10014000B17C0008B17C0008B17C00080000000010
:10015000000000000000000000000000000000009F
:10016000B17C0008B17C0008B17C0008B17C0008BB
:10017000B17C0008B17C0008B17C0008B17C0008AB
:10018000B17C0008B17C0008000000000000000005
:04019000B17C000836
:1001A00010B5054C237833B9044B13B10448AFF3B1
:1001B00000800123237010BD841400200000000083
:1001C000348D020808B5034B1BB103490348AFF354
:1001D000008008BD0000000088140020348D020853
:1001E00001F0FF01102A2BDB10F0070F08D010F8E8
:1001F000013B013A8B422DD010F0070F42B3F6D1EC
:10020000F0B441EA012141EA014122F007047FF004
:1002100000070023F0E80256083C85EA010586EA5B
:10022000010685FA47F5A3FA87F586FA47F6A5FA97
:1002300087F68EB9EED1F0BC01F0FF0102F00702A3
:1002400032B110F8013B013A83EA010313B1F8D14E
:100250000020704701387047002D06BF354603382F
:10026000073815F0010F07D1013015F4807F02BF68
:10027000013015F4C03F0130F0BC0138704700BFB9
:1002800010F8012B11F8013B012A28BF9A42F7D040
:10029000D01A7047034613F8012B002AFBD1181A15
:1002A0000138704781F0004102E000BF83F0004355
:1002B00030B54FEA41044FEA430594EA050F08BF01
:1002C00090EA020F1FBF54EA000C55EA020C7FEAC5
:1002D000645C7FEA655C00F0E2804FEA5454D4EB42
:1002E0005555B8BF6D420CDD2C4480EA020281EA0C
:1002F000030382EA000083EA010180EA020281EA44
:100300000303362D88BF30BD11F0004F4FEA013195
:100310004FF4801C4CEA113102D0404261EB4101A4
:1003200013F0004F4FEA03334CEA133302D052422A
:1003300063EB430394EA050F00F0A780A4F10104E6
:10034000D5F1200E0DDB02FA0EFC22FA05F2801820
:1003500041F1000103FA0EF2801843FA05F3594106
:100360000EE0A5F120050EF1200E012A03FA0EFC85
:1003700028BF4CF0020C43FA05F3C01851EBE371AF
:1003800001F0004507D54FF0000EDCF1000C7EEBCC
:1003900000006EEB0101B1F5801F1BD3B1F5001F0A
:1003A0000CD349085FEA30004FEA3C0C04F1010429
:1003B0004FEA445212F5800F80F09A80BCF1004F52
:1003C00008BF5FEA500C50F1000041EB045141EAD4
:1003D000050130BD5FEA4C0C404141EB010111F4D5
:1003E000801FA4F10104E9D191F0000F04BF014680
:1003F0000020B1FA81F308BF2033A3F10B03B3F15E
:1004000020020CDA0C3208DD02F1140CC2F10C02ED
:1004100001FA0CF021FA02F10CE002F11402D8BF4B
:10042000C2F1200C01FA02F120FA0CFCDCBF41EA17
:100430000C019040E41AA2BF01EB0451294330BDE6
:100440006FEA04041F3C1CDA0C340EDC04F11404C3
:10045000C4F1200220FA04F001FA02F340EA03009A
:1004600021FA04F345EA030130BDC4F10C04C4F1E0
:10047000200220FA02F001FA04F340EA03002946C0
:1004800030BD21FA04F0294630BD94F0000F83F40A
:10049000801306BF81F480110134013D4EE77FEAED
:1004A000645C18BF7FEA655C29D094EA050F08BF39
:1004B00090EA020F05D054EA000C04BF194610461A
:1004C00030BD91EA030F1EBF0021002030BD5FEA5E
:1004D000545C05D14000494128BF41F0004130BD86
:1004E00014F580043CBF01F5801130BD01F00045DA
:1004F00045F0FE4141F470014FF0000030BD7FEA4D
:10050000645C1ABF194610467FEA655C1CBF0B4647
:10051000024650EA013406BF52EA033591EA030F5E
:1005200041F4002130BD00BF90F0000F04BF002156
:10053000704730B54FF4806404F132044FF0000589
:100540004FF0000150E700BF90F0000F04BF002102
:10055000704730B54FF4806404F1320410F0004568
:1005600048BF40424FF000013EE700BF42004FEA63
:10057000E2014FEA31014FEA02701FBF12F07F43E0
:1005800093F07F4F81F06051704792F0000F14BFDD
:1005900093F07F4F704730B54FF4607401F0004521
:1005A00021F0004120E700BF50EA010208BF704778
:1005B00030B54FF000050AE050EA010208BF70476D
:1005C00030B511F0004502D5404261EB41014FF4D6
:1005D000806404F132045FEA915C3FF4DCAE4FF0DA
:1005E00003025FEADC0C18BF03325FEADC0C18BFC1
:1005F000033202EBDC02C2F1200300FA03FC20FA12
:1006000002F001FA03FE40EA0E0021FA02F114445E
:10061000C1E600BF70B54FF0FF0C4CF4E06C1CEA73
:1006200011541DBF1CEA135594EA0C0F95EA0C0FE8
:1006300000F0DEF82C4481EA030621EA4C5123EA5B
:100640004C5350EA013518BF52EA033541F480118A
:1006500043F4801338D0A0FB02CE4FF00005E1FB3D
:1006600002E506F00042E0FB03E54FF00006E1FB87
:1006700003569CF0000F18BF4EF0010EA4F1FF04CA
:10068000B6F5007F64F5407404D25FEA4E0E6D410A
:1006900046EB060642EAC62141EA55514FEAC5201B
:1006A00040EA5E504FEACE2EB4F1FD0C88BFBCF597
:1006B000E06F1ED8BEF1004F08BF5FEA500E50F148
:1006C000000041EB045170BD06F0004646EA01010E
:1006D00040EA020081EA0301B4EB5C04C2BFD4EB40
:1006E0000C0541EA045170BD41F480114FF0000E39
:1006F000013C00F3AB8014F1360FDEBF002001F0A7
:10070000004170BDC4F10004203C35DA0C341BDC20
:1007100004F11404C4F1200500FA05F320FA04F0F2
:1007200001FA05F240EA020001F0004221F0004126
:1007300010EBD37021FA04F642EB06015EEA430E99
:1007400008BF20EAD37070BDC4F10C04C4F12005C9
:1007500000FA04F320FA05F001FA04F240EA02007C
:1007600001F0004110EBD37041F100015EEA430E4D
:1007700008BF20EAD37070BDC4F1200500FA05F26D
:100780004EEA020E20FA04F301FA05F243EA0203EC
:1007900021FA04F001F0004121FA04F220EA0200FB
:1007A00000EBD3705EEA430E08BF20EAD37070BD41
:1007B00094F0000F0FD101F00046400041EB010121
:1007C00011F4801F08BF013CF7D041EA060195F003
:1007D000000F18BF704703F00046520043EB0303BD
:1007E00013F4801F08BF013DF7D043EA06037047AA
:1007F00094EA0C0F0CEA135518BF95EA0C0F0CD0B5
:1008000050EA410618BF52EA4306D1D181EA0301FA
:1008100001F000414FF0000070BD50EA410606BFF4
:100820001046194652EA430619D094EA0C0F02D139
:1008300050EA013613D195EA0C0F05D152EA03367E
:100840001CBF104619460AD181EA030101F000419C
:1008500041F0FE4141F470014FF0000070BD41F0E5
:10086000FE4141F4780170BD70B54FF0FF0C4CF4BF
:10087000E06C1CEA11541DBF1CEA135594EA0C0FDE
:1008800095EA0C0F00F0A7F8A4EB050481EA030E2B
:1008900052EA03354FEA013100F088804FEA033312
:1008A0004FF0805545EA131343EA12634FEA0222E0
:1008B00045EA111545EA10654FEA00260EF00041A1
:1008C0009D4208BF964244F1FD0404F5407402D2F3
:1008D0005B084FEA3202B61A65EB03055B084FEA84
:1008E00032024FF480104FF4002CB6EB020E75EB81
:1008F000030E22BFB61A754640EA0C005B084FEAA9
:100900003202B6EB020E75EB030E22BFB61A754625
:1009100040EA5C005B084FEA3202B6EB020E75EB70
:10092000030E22BFB61A754640EA9C005B084FEAE8
:100930003202B6EB020E75EB030E22BFB61A7546F5
:1009400040EADC0055EA060E18D04FEA051545EAE4
:1009500016754FEA06164FEAC30343EA52734FEA8D
:10096000C2025FEA1C1CC0D111F4801F0BD141EA06
:1009700000014FF000004FF0004CB6E711F4801F6B
:1009800004BF01430020B4F1FD0C88BFBCF5E06F4B
:100990003FF6AFAEB5EB030C04BFB6EB020C5FEA5B
:1009A000500C50F1000041EB045170BD0EF0004EB0
:1009B0004EEA113114EB5C04C2BFD4EB0C0541EAE2
:1009C000045170BD41F480114FF0000E013C90E6DF
:1009D00045EA060E8DE60CEA135594EA0C0F08BFA3
:1009E00095EA0C0F3FF43BAF94EA0C0F0AD150EAA2
:1009F00001347FF434AF95EA0C0F7FF425AF104635
:100A000019462CE795EA0C0F06D152EA03353FF45C
:100A1000FDAE1046194622E750EA410618BF52EAD9
:100A200043067FF4C5AE50EA41047FF40DAF52EAAD
:100A300043057FF4EBAE12E74FF0FF3C06E000BF4A
:100A40004FF0010C02E000BF4FF0010C4DF804CD57
:100A50004FEA410C7FEA6C5C4FEA430C18BF7FEA17
:100A60006C5C1BD001B050EA410C0CBF52EA430C45
:100A700091EA030F02BF90EA020F0020704710F1C5
:100A8000000F91EA030F58BF994208BF90422CBF54
:100A9000D8176FEAE37040F0010070474FEA410C4D
:100AA0007FEA6C5C02D150EA013C07D14FEA430C6B
:100AB0007FEA6C5CD6D152EA033CD3D05DF8040BDC
:100AC000704700BF8446104662468C46194663460E
:100AD00000E000BF01B5FFF7B7FF002848BF10F1E5
:100AE000000F01BD4DF808EDFFF7F4FF0CBF01202A
:100AF00000205DF808FB00BF4DF808EDFFF7EAFFA6
:100B000034BF012000205DF808FB00BF4DF808ED60
:100B1000FFF7E0FF94BF012000205DF808FB00BF55
:100B20004DF808EDFFF7CEFF94BF012000205DF8DF
:100B300008FB00BF4DF808EDFFF7C4FF34BF0120EC
:100B400000205DF808FB00BF4FEA410C7FEA6C5CB7
:100B500002D150EA013C0AD14FEA430C7FEA6C5CB7
:100B600002D152EA033C02D14FF0000070474FF02F
:100B7000010070474FEA410212F5001215D211D55B
:100B80006FF47873B3EB625212D94FEAC12343F08A
:100B9000004343EA505311F0004F23FA02F018BF0C
:100BA000404270474FF00000704750EA013005D1D5
:100BB00011F0004008BF6FF0004070474FF0000098
:100BC000704700BF4A0011D212F5001211D20DD5A4
:100BD0006FF47873B3EB62520ED44FEAC12343F043
:100BE000004343EA505323FA02F070474FF00000ED
:100BF000704750EA013002D14FF0FF3070474FF09C
:100C0000000070474FEA4102B2F1E04324BFB3F560
:100C1000001CDCF1FE5C0DD901F0004C4FEAC00273
:100C20004CEA5070B2F1004F40EB830008BF20F057
:100C30000100704711F0804F21D113F13872BCBF11
:100C400001F00040704741F480114FEA5252C2F166
:100C50001802C2F1200C10FA0CF320FA02F018BFAF
:100C600040F001004FEAC1234FEAD32303FA0CFC02
:100C700040EA0C0023FA02F34FEA4303CCE77FEA91
:100C8000625307D150EA01331EBF4FF0FE4040F4DB
:100C90004000704701F0004040F0FE4040F400008A
:100CA000704700BF53B94AB9002908BF00281CBFCC
:100CB0004FF0FF314FF0FF3001F0F6B8ADF1080C06
:100CC0006DE904CE00F006F8DDF804E0DDE902236A
:100CD00004B070472DE9F0478C460D460446089E47
:100CE000002B51D18A4217466DD9B2FA82FEBEF16D
:100CF000000F0BD0CEF1200C01FA0EF520FA0CFCFF
:100D000002FA0EF74CEA050C00FA0EF44FEA174A05
:100D1000250CBCFBFAF81FFA87F90AFB18CC45EA48
:100D20000C4508FB09F3AB420AD9ED1908F1FF3273
:100D300080F02381AB4240F22081A8F102083D44BB
:100D4000ED1AA4B2B5FBFAF00AFB105544EA0544CB
:100D500000FB09F9A14509D9E41900F1FF3380F03E
:100D60000A81A14540F2078102383C44A4EB090402
:100D700040EA08400021002E61D024FA0EF400233E
:100D800034607360BDE8F0878B4207D9002E54D0E1
:100D9000002186E821000846BDE8F087B3FA83F118
:100DA000002940F08E80AB4202D3824200F2FA80EA
:100DB000841A65EB03050120AC46002E3FD086E87F
:100DC0001010BDE8F08712B90127B7FBF2F7B7FAA8
:100DD00087FEBEF1000F34D1EB1B3A0C1FFA87FCE3
:100DE0000121B3FBF2F8250C02FB183345EA034559
:100DF0000CFB08F3AB4207D9ED1908F1FF3002D222
:100E0000AB4200F2D1808046ED1AA3B2B5FBF2F0FE
:100E100002FB105543EA05440CFB00FCA44507D92E
:100E2000E41900F1FF3302D2A44500F2B88018465D
:100E3000A4EB0C0440EA08409DE731463046BDE88B
:100E4000F087CEF1200405FA0EF307FA0EF720FA28
:100E500004F83A0C25FA04F448EA0308B4FBF2F16A
:100E60004FEA184502FB11441FFA87FC45EA044586
:100E700001FB0CF3AB4200FA0EF409D9ED1901F1B4
:100E8000FF3080F08A80AB4240F2878002393D44D7
:100E9000EB1A1FFA88F5B3FBF2F002FB103345EAB8
:100EA000034500FB0CF3AB4207D9ED1900F1FF3805
:100EB0006FD2AB426DD902383D44EB1A40EA014192
:100EC0008FE7C1F1200722FA07F88B4005FA01F4F9
:100ED00048EA030320FA07FE4FEA134CFD404EEAAE
:100EE000040EB5FBFCF94FEA1E440CFB19551FFA22
:100EF00083F844EA054509FB08F4AC4202FA01F222
:100F000000FA01FA08D9ED1809F1FF3043D2AC42DA
:100F100041D9A9F102091D442D1B1FFA8EFEB5FB14
:100F2000FCF00CFB10554EEA054400FB08F8A04508
:100F300007D9E41800F1FF3529D2A04527D9023896
:100F40001C4440EA0940A4EB0804A0FB02894C457C
:100F5000C6464D4615D312D056B1BAEB0E0364EB1C
:100F6000050404FA07F7CB401F43CC403760746098
:100F70000021BDE8F0871846F8E69046E0E6C24555
:100F8000EAD2B8EB020E69EB03050138E4E7284624
:100F9000D7E7404691E78146BEE7014678E7023849
:100FA0003C4445E7084608E7A8F102083D442BE722
:100FB00003685A004CBF43F0004323F00043184439
:100FC000704700BF61B32DE9F84F01F1FF3A904639
:100FD0000646D146002707EB090404EBD4746410DD
:100FE000E50071190846FFF7E3FFA245834605F1C6
:100FF0000800304409D0FFF7DBFFC34500F1FF30A4
:1010000005D8404509D2671CE5E7C34505D9A74285
:1010100002D004F1FF39DEE700210846BDE8F88F71
:1010200008467047012807D0022807D0044B002843
:101030000CBF1846002070470248704702487047AE
:10104000291700082D1700083117000830B5244B68
:1010500083B004468D1E7BB301A92846AFF3008000
:1010600020B301992A46FFF7ADFF0146F0B1FFF723
:101070009FFF4B68A064012B12D0002B01F10400EC
:1010800020DBFFF795FF0023E06423650368002B56
:101090001CDBFFF78DFF00232061184603B030BD35
:1010A000002323610523184603B030BD00232361CC
:1010B0000923184603B030BD0A490B48091AC91064
:1010C0000191CFE70123E0642365DFE7C3F3036009
:1010D000FFF7A8FF0028206114BF00230923DCE7E5
:1010E0000000000088D3020878D002080368DA07FD
:1010F00010B5044606D49B0700F1480009D500F05E
:1011000051FC2368590709D51A070ED5DB0613D5FC
:1011100010BD00F03FFC23685907F5D404F1D0005E
:1011200000F048FC23681A07F0D404F5A87000F01A
:1011300049FC2368DB06EBD404F5E870BDE81040F9
:1011400000F084BC036803B103441846704700BF35
:1011500009207047704700BF70B504460D4608E08F
:101160002B6C63612A462369214601209847082891
:1011700008D1296C2046FFF769FF06460028EFD00A
:1011800020F026F80728FBD13046296CFFF7E2FF54
:10119000281D00F0F3FB00BF2DE9F0470C1D0546AC
:1011A00092460FCCADF5727D03AE0FC60FCC0FC6C5
:1011B0000FCC0FC694E80F0002ACD5F80C80D5F820
:1011C000189086E80F0000232846216C2360FFF763
:1011D0003DFFBAF1000F074614BF0A2609267FB16A
:1011E000A36B46F010018DE810022A4663640120CB
:1011F0002B46C04778BB38460DF5727DBDE8F087B9
:10120000236C6B614FF4F07221467AA820F07BFDCD
:101210002B697AAA294630469847889B82468DE8F2
:101220001002314663642A462B460120C04790B91C
:101230004FF4F0727AA9204620F065FDBAF1080F4C
:1012400006D1216C2846FFF701FF09260746C6E7AD
:10125000BAF1070F05D0092738460DF5727DBDE8B4
:10126000F0873846216CFFF775FF03A800F086FB76
:10127000406C7047F0B5CB6B0B640E1D0F460446F7
:101280000FCEF9B001AD0FC50FCE0FC50FCE0FC5F4
:1012900096E80F004FF0FF3685E80F00009606E055
:1012A00023696A46214698470828054608D11099BF
:1012B0002046FFF7CBFE0028F2D0092079B0F0BD20
:1012C0006846FFF713FF062DF7D139462046FFF792
:1012D00043FF00BF30B4DD6BC160826119461D64FD
:1012E000002230BC58E700BF70B5C66843690B6484
:1012F00026B10122FFF750FF1FF06AFF03690A467B
:1013000004460D46014602209847072807D00828C2
:1013100003D129462046FFF71FFF1FF059FF304633
:10132000296CFFF717FF281D00F028FBC2681AB1CF
:10133000CA6B0A6400222FE79CE700BF704700BF1A
:10134000836813B1014601201847704700B504298E
:1013500007D8DFE801F00309060909000BB90F2AD5
:1013600005D902205DF804FB01205DF804FB00EBC9
:10137000820218465368019A13605DF804FB00BFAF
:1013800010B584B0002303AC0A4600941946FFF759
:10139000DDFF039804B010BD00B5042907D8DFE8CD
:1013A00001F00309060909000BB90F2A05D902202B
:1013B0005DF804FB01205DF804FB019900EB82025B
:1013C0000968516018465DF804FB00BF10B584B091
:1013D00004AC002344F8042D0A4600941946FFF794
:1013E000DBFF04B010BD00BFF0B5D36B1364151D57
:1013F00007460E460FCDADF50F7D17AC0FC40FCDD0
:101400000FC40FCD0FC495E80F004FF0FF3584E8EF
:101410000F00169510E016A8FFF7D8FF314616A862
:10142000B84716AA694678B9049B0820984705284A
:1014300004460AD0092807D026996846FFF706FE19
:101440006A460C210028E6D0092416A8FFF74EFEB4
:1014500020460DF50F7DF0BD2DE9F04F0D46C96C0E
:101460008BB00C1D096807919146089400F0030B9E
:101470001E46002B60D10902032307918DF82560D9
:101480008DF824302B6DBBF1020F08BFAC6B13F04D
:10149000010340D1019300F008030393D4F80080C6
:1014A000B8F1000F39D0022E43D0B4F8008067881D
:1014B0000434AB6C27F0010A0F2148469A44FFF729
:1014C0005FFF824533D828F001039A4450452CBF72
:1014D000002001207F0007F0020708F0010847EA1A
:1014E0000807012F3ED035D3022F1CD1236823F0EB
:1014F00000420292BBF1000F76D128B10399002976
:101500007ED0002A00F0A680002B77DB029B0133FF
:1015100004EB8304C2E700230193022E3EDDFFF7B4
:1015200017FE002840D009200BB0BDE8F08F002046
:10153000D0E767680834BCE7022BA3DC0B0CDAB2F7
:1015400009048DF82530022304EB820407918DF8FD
:10155000243097E7BBF1000F02D0002840F0BD8097
:1015600004349BE7BBF1000F25D1A8B194E80C002F
:10157000991C4FEAD272D6D005F158010133069179
:1015800000F0A380201DFFF7DDFD06AB01462846D5
:1015900006F0CEFB002877D108347FE707A948463C
:1015A00000F0EEFA0028BED1019B002B5CD1082090
:1015B0000BB0BDE8F08F0D2148462F6AFFF7E0FE23
:1015C0008742E9D1AB6A9C42E6D12046FFF7F0FCA6
:1015D0000F2102464846FFF7F9FE48462A460021F9
:1015E000FFF7F4FE07209FE70D2148462F6AFFF71B
:1015F000C7FE874258D02368002B87DA043485E77A
:10160000029B3BB305F15803271DCDF810B0DDF860
:101610000C80DDF808A00596A3461C4602E0B24502
:10162000B04616D038460694FFF78CFD06AB01464F
:101630000022284606F07CFB08F10106043700284A
:10164000EDD0029B059E43455C46DDF810B0D2D13B
:1016500000E05C4648460D21FFF792FE069B28629B
:10166000AC626B6206205FE70F214846FFF788FEF9
:101670000E2102464846FFF7A9FE4846294A0F2197
:10168000FFF7A4FE07204FE707460D214846FFF766
:1016900077FE022F28621DD12B46069A43F82C2F85
:1016A0006B62AC6206203FE7AB6A9C42A3D1042286
:1016B0000027A3180299A962EF622A636B6323686B
:1016C000BB421DDB0123019320E748460D21FFF7B4
:1016D00057FE2862069B6B62E3E72046FFF768FC33
:1016E00004340646AC63284606F080FB00283FF42D
:1016F0001AAF484632460F21FFF768FE072013E76E
:101700000846013004EB8000FFF752FC0F2102462F
:101710004846FFF75BFE48462A463946FFF756FE25
:10172000072001E709610108002395E6012393E6FC
:10173000022391E6F0B50446C5B004290DD8DFE8D0
:1017400001F053030C310F00012B4FEA124695B202
:1017500062D17219102A40F29B80022045B0F0BD80
:10176000002BFAD1102AF8D82368D80600F1C680D9
:1017700022AE3046019200F073F9A06B019A00236B
:10178000012505FA03F1114203D0016846F8231040
:1017900004300133042BF4D1A063304600F056F935
:1017A0000020DBE7032BD8D1150C97B2EB19102BD7
:1017B000D3D823681E0700F1B58022AE304600F072
:1017C00023F9ED00A36B4FB1043D711903EBC70082
:1017D00053F8042B41F8042F8342F9D13046A36318
:1017E00000F0F0F80020B9E7002BB6D1A56B97B256
:1017F000201D012606FA03F1394203F1010302D04C
:10180000296801600435102B00F10400F2D112F4B4
:1018100000503BD1A563A1E7052B9ED17719202F5E
:101820009BD80F2E66D92F46002D3AD12A46002785
:10183000002AA06B72DD00EBC202014644A800EB57
:10184000C6008C3851F8045B40F8045F9142F9D12E
:10185000084697B1102E324644A938BF102201EB3A
:10186000C202A2F5C4727900043A00EB810150F87B
:10187000045B42F8045F8842F9D1012B48D00F2E57
:10188000A16333D917B102A800F094F8002065E7EE
:101890000F2E3FF662AF00272268D10717D4002F22
:1018A00060D02268510745D4012B4DD00F2E06D8A9
:1018B00022A8019300F07AF8019B002FB6D002A86D
:1018C000019300F07BF8019BC6F11002B0E722F013
:1018D0000101052B2160019320463BD022F0030239
:1018E00040F8482B00F05AF8019BD8E722A800F0F6
:1018F00059F8C7E7102FCED9103FCDE723F01003DA
:10190000236004F5E870019200F0AAF8019A2FE72D
:101910000431A16322A800F03DF8B7E7002F99D168
:101920000146AAE723F00803236004F5A87000F03D
:101930006BF842E7204622F0040240F8D02B0193D6
:1019400000F03CF8019BAFE722A8019300F026F8D5
:10195000019BB9E741F0020140F8481B00F026F86E
:10196000019B9CE7012B03D00F2E3FF65FAF9FE753
:1019700022A8019300F012F8019B57E700F134010F
:1019800091E838009C46A6464CF8045D90E8FF0FAD
:10199000E54600BD90EC210B704700BF80EC210BA9
:1019A000704700BF90EC200B704700BF80EC200B0D
:1019B000704700BFD0EC200B704700BFC0EC200B7D
:1019C000704700BFF0EC0201F0EC0211F0EC0221D4
:1019D000F0EC0231F0EC0241F0EC0251F0EC02616B
:1019E000F0EC0271F0EC0281F0EC0291F0EC02A15B
:1019F000F0EC02B1F0EC02C1F0EC02D1F0EC02E14B
:101A0000F0EC02F1704700BFE0EC0201E0EC0211E3
:101A1000E0EC0221E0EC0231E0EC0241E0EC0251AA
:101A2000E0EC0261E0EC0271E0EC0281E0EC02919A
:101A3000E0EC02A1E0EC02B1E0EC02C1E0EC02D18A
:101A4000E0EC02E1E0EC02F1704700BFB0FC018184
:101A5000B0FC0191B0FC01A1B0FC01B1704700BF26
:101A6000A0FC0181A0FC0191A0FC01A1A0FC01B19E
:101A7000704700BFEC4600B52DE900502DE9FF1F6F
:101A80004FF000032DE90C0001A9FFF7F3FBDDF88F
:101A900040E012B0704700BFEC4600B52DE90050A1
:101AA0002DE9FF1F4FF000032DE90C0001A9FFF7FE
:101AB0001BFCDDF840E012B0704700BFEC4600B5FB
:101AC0002DE900502DE9FF1F4FF000032DE90C0018
:101AD00001A9FFF72BFCDDF840E012B0704700BF12
:101AE000EC4600B52DE900502DE9FF1F4FF0000333
:101AF0002DE90C0001ABFFF7EDFBDDF840E012B083
:101B0000704700BFEC4600B52DE900502DE9FF1FDE
:101B10004FF000032DE90C0001AAFFF765FCDDF88A
:101B200040E012B0704700BF027A1AB9437A43B955
:101B3000B02070470368013A02721A020260180E60
:101B400070474268013B10B4437213680321141DAF
:101B500001721A02446002605DF8044B180E70476F
:101B600000B585B003AA0023009219460C22FFF7A6
:101B7000EDFB039805B05DF804FB00BFF0E700BF84
:101B80002DE9F043064685B00F464FF00008384671
:101B9000FFF7CAFFB028044623D0050627D4002348
:101BA0000DF10C09194685000D22CDF80090304644
:101BB000FFF7CCFBEDB2039BCDF80090600605F17A
:101BC00004054CBF5D1BED18002319460D2230465D
:101BD0000395FFF7E1FB3846FFF7A6FFB028044660
:101BE000DBD1B8F1000F00F0958000201CE000F080
:101BF000F003802B5DD0902B19D0A02B2CD0B02BD4
:101C00003FD0C02B6CD000F0F803D02B0BD100F0EC
:101C10000702013242F40022052301213046FFF77A
:101C200089FD0028B3D0092005B0BDE8F08300F09D
:101C30000D030D2BF7D003AD002300F00F02194662
:101C400000953046FFF782FB0023009519460D22D0
:101C50003046FFF7A1FB9AE7C24302F007034FF4B7
:101C60007F621A41010702F47F624FF0000348BF10
:101C700042F4804219463046FFF75CFD0028D2D17D
:101C800085E7B12857D0B22868D0B32800F09580F6
:101C900000F0FC03B42BC6D000F007020132012390
:101CA00042F4002219463046FFF744FD0028BAD11D
:101CB0006DE73846FFF738FF24020443B4F5004FC0
:101CC000B1D024010023A2B219463046FFF732FDFD
:101CD0000028A8D114F4004F18BF4FF0010856E7B0
:101CE000C6287DD0C72800F0868000F0F803C02BFE
:101CF00000F09480C82800F09F80C92893D138460E
:101D0000FFF712FF020300F00F0002F4702201300F
:101D1000024381E703AC43460E224146009430461D
:101D2000FFF714FB0094304643460F224146FFF76D
:101D300033FB404678E73846FFF7F6FE00283FF4CD
:101D400072AF10F0F0037FF46EAF024619463046D2
:101D5000FFF7F0FC00287FF466AF18E700230DF1D1
:101D60000C090D221946CDF800903046FFF7EEFA27
:101D70003846FFF7D9FE02064FF002040CD5039B4C
:101D800000F07F00A040034438460393FFF7CCFEE9
:101D9000030604F10704F2D4039BCDF8009000F091
:101DA0007F02A24003F501740023144419460D225A
:101DB00030460394FFF7F0FAE9E63846FFF7B4FE41
:101DC000010300F00F0001F47021421C01230A43BB
:101DD00030461946FFF7AEFC00287FF424AFD6E664
:101DE0003846FFF7A1FE010300F00F0001F4702157
:101DF000421C0323EBE73846FFF796FE00283FF42A
:101E000012AF10F0F0037FF40EAF0246042130460B
:101E1000FFF790FC00287FF406AFB8E600F00F0251
:101E20000132032342F4202219463046FFF782FC98
:101E300000287FF4F8AEAAE63846FFF775FE00F0FA
:101E4000F00200F00F031032013343EA0232E3E6FE
:101E500010B5C36C84B05A6803208DF80C00DC798F
:101E60008DF80D4012020833084601A90192029331
:101E7000FFF786FE04B010BD08B5FFF77FFE806C4B
:101E800008BD00BF08B5FFF779FEC06CC37900EB51
:101E90008300083008BD00BF08B51FF099F900BFE6
:101EA00008B5FFF7F9FF00BF704700BF38B50E4A0D
:101EB0000E4B054618784FF47A73B3FBF0F31068B5
:101EC000B0FBF3F000F0A0F8044658B90F2D09D884
:101ED000024629464FF0FF3000F056F8044B2046EA
:101EE0001D6038BD012038BDE0110020D611002052
:101EF000D8110020074A08B5136843F01003136097
:101F0000032000F02FF80020FFF7D0FF05F010FDB0
:101F1000002008BD00200240034A044B11681B78D2
:101F20000B441360704700BF2C2B0020D6110020FB
:101F3000014B1868704700BF2C2B002038B50446B1
:101F4000FFF7F6FF631C1CBF054B1B78054618BF47
:101F5000E418FFF7EDFF401B8442FAD838BD00BFFC
:101F6000D6110020074AD36823F4E0631B041B0C3E
:101F700043F0BF63000243F4003300F4E060034326
:101F8000D360704700ED00E0174B30B5DC68C4F358
:101F90000224C4F10703251D042B28BF0423062DAA
:101FA0004FF0010505FA03F303F1FF338CBF033C47
:101FB00000241940A14005FA04F4013C2240002805
:101FC00042EA01024FEA0212AFBF00F1604000F0A6
:101FD0000F00064BD2B2A5BF00F56140D2B21A5431
:101FE00080F8002330BD00BF00ED00E014ED00E0FC
:101FF0004209012300F01F0003FA00F0014B43F8EF
:102000002200704700E100E00138B0F1807F0AD281
:10201000064B074A5860F02182F82310002007225F
:1020200098601A6070470120704700BF10E000E020
:1020300000ED00E001680C4B994210B54FF014041C
:1020400009D80A4A0A44B2FBF4F292000264A3F2ED
:102050000743C36310BD064B0B44B3FBF4F39B0073
:102060000364044BF5E700BF07040240F8FFFDBF1F
:10207000F8FBFDBF0004024038B5044608B3022354
:10208000856880F82130436801682B43C5680A6879
:102090002B4305692B4345692B4385692B43C56950
:1020A00022F47F5222F030022B4313430B60FFF7E0
:1020B000C1FF00200123A06384F8213084F82000B0
:1020C00038BD012038BDF0B590F82040012C35D046
:1020D00090F821500124A54280F820404FF00006DE
:1020E0004FF0020428D180F82140046886632668F6
:1020F000076C26F001062660C66BBD407560636004
:1021000043680568102BC36A0BBFA260A160E16041
:10211000E2604BB1236843F00E0323602B6843F069
:1021200001032B600020F0BD236843F00A03236005
:10213000236823F00403F0E780F820600220F0BD5C
:1021400090F82120022A10B503D0042282630120D6
:1021500010BD0268C46B1168436B21F00E01116061
:10216000116821F001011160026C012101FA02F2F3
:102170006260002480F8211080F8204013B1984755
:10218000204610BD184610BDC16B026C036870B4C8
:102190000E681D680424944026420ED015F0040FEA
:1021A0000BD01A6892065EBF1A6822F004021A6009
:1021B000C36A4C6073B370BC184702249440264233
:1021C00012D015F0020F0FD01A68950606D41A68BF
:1021D00022F00A021A60012380F8213000234C60AB
:1021E00080F82030836AE5E708249440344211D017
:1021F0002C070FD51C6824F00E041C60012303FA81
:1022000002F24A60836380F82130002380F8203096
:10221000036BCFE770BC70472DE9F74FD1F8008012
:10222000DFF89091614A002338FA03F402D103B039
:10223000BDE8F08F4FF0010E0EFA03FE18EA0E060D
:1022400000F0A6804C6824F01007022F16D14FEA48
:10225000D30A00EB8A0A03F0070BDAF820504FEAA2
:102260008B0B4FF00F0C0CFA0BFC25EA0C0C0D69D4
:1022700005FA0BF545EA0C05CAF820504FEA430A67
:102280000325D0F800B005FA0AF5ED4304F0030C7D
:102290000BEA050B0CFA0AFC013F4CEA0B0C012F70
:1022A000C0F800C011D8876807EA050BCF6807FAA5
:1022B0000AFC4CEA0B078760476827EA0E0EC4F356
:1022C00000179F4047EA0E074760C7683D408F6888
:1022D00007FA0AF73D43C560E50059D5D9F818500B
:1022E00045F00105C9F81850D9F8185023F0030734
:1022F00007F1804705F0010507F58037019503F0E8
:10230000030C019DBD684FEA8C0C4FF00F0E0EFAC6
:102310000CFEB0F1904F25EA0E0E3BD0244DA842A2
:102320003AD005F58065A84238D005F58065A84209
:1023300036D005F58065A84234D005F58065A84201
:1023400032D005F58065A84214BF0725062505FA99
:102350000CF545EA0E05BD601568F74314F4803F9F
:102360000CBF3D4035431560556814F4003F0CBF69
:102370003D4035435560956814F4801F0CBF3D40C7
:1023800035439560D568A40254BF3D403543D560C0
:10239000013349E70025DAE70125D8E70225D6E72A
:1023A0000325D4E70425D2E70525D0E70004014042
:1023B00000040048001002400AB181617047816248
:1023C000704703689A69910744BF00229A629A692C
:1023D000D2075EBF9A6942F001029A61704730B538
:1023E000039C05682343640D04F4806444F07F7407
:1023F00044F458346868C1F3090144F47F74194304
:1024000044F0030441EA024120EA040421436960E4
:1024100030BD0000184B30B5446B9C4201F01202F5
:1024200001F0040302D0154DAC4213D1002B01F092
:1024300011010CBF0023B823112908BF43F09003FA
:10244000122A01D143F06003026811680B43136044
:10245000002030BD002B0CBF0023B823CC0748BFA1
:1024600043F0F203890748BF43F0F403122A08BF80
:1024700043F02003E8E700BF9F2F0008792E0008F3
:1024800011F0010307D090F8413003F02803282B06
:102490000CBF4223F2238A0709D590F8412002F0AD
:1024A0002802282A0CBF43F0440343F0F4034A07F0
:1024B00001F0110248BF43F0B80301F01201112AE4
:1024C00008BF43F09003122901680A6808BF43F06F
:1024D000600322EA03030B60002070472DE9F041FE
:1024E000069F0446884616461D462268936938EAC8
:1024F00003030CBF01230023B34202D00020BDE838
:10250000F0816B1CF2D055B9202384F841300023B0
:1025100084F8423084F840300320BDE8F081FFF7B2
:1025200007FDC01B8542E0D2EEE710B5446A226881
:10253000136823F480431360638D9BB22BB920464C
:102540001221BDE81040FFF765BF238D616AA06BC3
:102550001944638D61629BB2FF2B8CBFFF23638D97
:102560002385238D2832FFF7AEFDE8E7036870B5B9
:102570000446986910F010000D46164612D170BD41
:10258000691C10D04DB9202384F84130002384F811
:10259000423084F84030032070BDFFF7C9FC801B37
:1025A0008542F0D3236899698A06E9D5102220254F
:1025B000DA612046DD61FFF704FF2268536823F0EB
:1025C000FF7323F48B3323F4FF7323F00103536071
:1025D00004236364002384F8415084F8403084F875
:1025E0004230012070BD70B504460D461646236882
:1025F0009B699B0701D5002070BD324629462046C5
:10260000FFF7B4FFB0B96A1CF1D06DB9636C43F049
:1026100020036364202384F84130002384F842308F
:1026200084F84030032070BDFFF782FC801B854298
:10263000DDD2EBE7012070BDF7B5099E1F46184BB0
:102640000093044615464FF08073FAB2FFF7C7FEB9
:10265000324608992046FFF7C6FF28B1636C042B69
:1026600010D1012003B0F0BD012F23680CD1EDB2D1
:102670009D62089B0096002280212046FFF72EFFD6
:102680000028EFD00320EDE72A0A9A620899324623
:102690002046FFF7A8FF0028E0D12368E7E700BF46
:1026A0000020008070B504460D46164623689B69DD
:1026B0009B0601D5002070BD324629462046FFF713
:1026C00055FFA0B96DB9636C43F020036364202308
:1026D00084F84130002384F8423084F840300320ED
:1026E00070BDFFF725FC801B8542DFD2EBE70120A0
:1026F00070BD10B5044600284AD090F8413003F070
:10270000FF021BB980F8402004F074FE242384F8F3
:1027100041302368E1681A6822F001021A60626899
:1027200022F070621A619A68012922F400429A60CC
:10273000A26824D142F400429A605A68616942F06A
:10274000007242F400425A60DA6822F40042DA6011
:1027500022690A43A16942EA0122DA60216AE26938
:102760000A431A601A6842F001021A60002020230E
:10277000606484F84130206384F8420010BD42F464
:10278000044202299A6004BF4FF400625A60D4E701
:10279000012010BD2DE9F04F9B4690F8413085B0E7
:1027A000202B04460F460392BDF83CA0DDF8409074
:1027B00040F0A6800E9B1BB9012005B0BDE8F08F4C
:1027C000BAF1000FF8D090F84030012B00F098805B
:1027D000012580F84050FFF7ABFB19230090064617
:1027E0002A464FF400412046FFF778FE8046D0B9D4
:1027F000212384F84130402384F842300E9B6064EA
:1028000063626063A4F82AA00196CDF800905B464D
:10281000039A39462046FFF70FFF30B1636C84F806
:102820004080042BC8D00320C7E7638D9BB2FF2BE9
:1028300010D9FF22228500904FF080733946204640
:10284000FFF7CDFD324649462046FFF7CCFE48B1A2
:10285000636CE6E7628D009092B222854FF00073C0
:10286000D2B2EBE7636A2268591C61621B789362FB
:10287000638D228D013B013A9BB292B26385228522
:10288000BAB9638D9BB2A3B100964B468021204616
:10289000FFF724FE0028C6D1638D9BB2FF2B27D9FA
:1028A000FF22228500904FF0807339462046FFF7C3
:1028B00096FD638D9BB2002BC4D13246494620461B
:1028C000FFF7F0FE0028C3D123682021D9615A68A0
:1028D00022F0FF7222F48B3222F4FF7222F0010206
:1028E0005A6084F8411084F8400084F8420064E79C
:1028F000628D009092B222854FF00073D2B2D4E77D
:1029000002205AE72DE9F3479A4690F841300A9E93
:10291000BDF82C80202B04460F4691466DD1002E29
:102920003ED0B8F1000F3BD003689D6915F4004517
:1029300063D190F84030012B5FD0012380F8403004
:10294000FFF7F6FA212384F84130402384F842301F
:102950002B4B6564A4F82A80E362618D294B636385
:1029600089B2FF298BBFFF23638D238523854FF019
:10297000190301900093666253464A463946204641
:102980008CBF4FF080784FF00078FFF755FE05467A
:1029900068B1636C042B4FF0000384F8403001D120
:1029A000012500E00325284602B0BDE8F087A06BB2
:1029B000154B22688362154B03632832238DC56251
:1029C00031464563FFF77FFB94F828200095434686
:1029D00039462046FFF703FD638D228D84F8405071
:1029E0009B1A9BB2638511212046FFF713FD2268D5
:1029F000136843F480431360D5E70225D3E700BF93
:102A00000000FFFF9F2F00082B25000865300008FD
:102A10000268436B9169126803B1184770477047A9
:102A200070477047704738B5002580F8425090F8DD
:102A30004130292B04460DD1282380F84130212331
:102A400003630121FFF71CFD84F840502046FFF787
:102A5000E8FF38BD90F841302A2B0CD1282380F8AC
:102A60004130222303630221FFF70AFD84F840501E
:102A70002046FFF7D7FF38BD70477047164B10B59B
:102A80002022C36200230363436380F8412080F85F
:102A900042304B07044611D5436A5A1C4262026811
:102AA000526A1A70038D4BB1013B0385438D013B84
:102AB0009BB24385436C43F00403436407212046E3
:102AC000FFF7DEFC23681022DA61002384F840302F
:102AD0002046FFF7D2FF10BD0000FFFF7047704790
:102AE000704700000023354A10B580F84230C262BA
:102AF0004385436C1943416490F84130282B0446C8
:102B000007D090F84130292B03D090F841302A2B80
:102B100022D103212046FFF7B3FC282384F841305B
:102B200000232363264B6363236819681A6811F432
:102B300080411ED022F48042A06B1A60214B436377
:102B4000002384F84030FFF7FBFA002834D0A06B54
:102B5000436BBDE8104018470721FFF791FC94F83C
:102B60004130602B1CBF202384F8413000232363B5
:102B7000D9E712F400420DD01A68E06B22F400424B
:102B80001A60104B436384F84010FFF7D9FA98B1EC
:102B9000E06BDDE794F84130602B08D1202384F806
:102BA000413084F840202046FFF79AFF10BD84F89A
:102BB00040202046FFF793FF10BD00BF0000FFFF3D
:102BC000C92C00087730000838B503682022044675
:102BD000DA610822DA610D460721FFF751FC23680C
:102BE0005A6842F400425A605A6822F0FF7222F496
:102BF0008B3222F4FF7222F001025A602046FFF766
:102C0000E0FB22681368580402D41368190409D53C
:102C100094F84130212B0CBFA36BE36B1B685B68FE
:102C20009BB26385638D9BB21BB1636C43F004035D
:102C300063646B0710D5636A526A591C61621A702B
:102C4000238D4BB1013B2385638D013B9BB2638593
:102C5000636C43F0040363640023236384F842300D
:102C60006363636C6BB1616C2046FFF73BFF94F8C4
:102C70004130282B24D129462046BDE83840FFF7B3
:102C8000FDBEE26A12F5803F0AD00E4AE2622022BF
:102C900084F8412084F840302046FFF7EEFE38BD2E
:102CA00094F8412084F84030222A4FF0200284F822
:102CB0004120204602D1FFF7B5FE38BDFFF7B1FE37
:102CC00038BD00BF0000FFFF2DE9F84390F8403009
:102CD000012B04460E46174600F0CB800123CD069B
:102CE00080F840303ED5D0063CD5638D9BB28BBB7F
:102CF000E36AB3F1007F03D0E36AB3F1007F14D13C
:102D000094F84130282B10D131462046FFF7B6FE0B
:102D1000B20605D5BB0603D531462046FFF754FF62
:102D2000002084F84000BDE8F883E36A13F5803F93
:102D300023680CD094F84120292A08D11022DA61A6
:102D40002046FFF73EFB2046FFF76DFEE0E710222E
:102D5000DA61DDE723681022DA61636C43F0040373
:102D60006364D5E771071AD57A0718D5638D9BB2CE
:102D700063B1636A5A1C62622268526A1A70238DB8
:102D8000013B2385638D013B9BB26385638D9BB2C1
:102D9000002BBDD1E36A13F5803FD4D1B8E73307E8
:102DA00046D53D0744D594F8413003F02803282B3D
:102DB000236837D19A69E1689D6902294FEA154570
:102DC000C2F3004805F0FE059A68D3F80C9020D1B4
:102DD000C2F3090285EAD21515F006050FD1A16CE0
:102DE0000131A164A16C022992D10821A564D961A5
:102DF00084F8405041462046FFF73EFE88E7042114
:102E00002046FFF73DFB002384F8403009F0FE0226
:102E1000F0E704212046FFF733FB002384F840301D
:102E20002A46E7E70822DA61002384F840306FE79A
:102E3000B0077FF56DAFB9077FF56AAF638D9BB2C1
:102E40006BB1636A2268591C61621B789362638D5F
:102E5000013B9BB26385238D013B238558E7E36AE1
:102E6000B3F1807F3FF46FAFE36A002B3FF46BAFA9
:102E70004EE70220BDE8F88390F84030012B10B5F2
:102E800004462ED0012380F84030C80619D5D30659
:102E900017D594F841302268212B0CBFA36BE36B4C
:102EA0001B685B68B3FA83F310215B09D1611BB126
:102EB000002084F8400010BD636C43F00403636499
:102EC000F6E7080705D5130703D523680822DA615A
:102ED000EEE78806ECD59306EAD52046FFF774FEA8
:102EE000E6E7022010BD0368202210B5DA615A68B7
:102EF00022F0FF7222F48B3222F4FF7222F00102E0
:102F00005A60002202634263A2F58032C262CA069E
:102F1000044605D51022DA61436C43F00403436490
:102F20002046FFF74EFA03212046FFF7A9FA636C0B
:102F30001BB994F84120602A05D1616C2046BDE898
:102F40001040FFF7CFBD94F84120212A11D1202253
:102F500084F8412094F8422084F84030402A84F8D4
:102F60004230204602D104F0CBFA10BDFFF757FDE6
:102F700010BD94F84120222A10D1202284F841204B
:102F800094F8422084F84030402A84F842302046A9
:102F900002D1FFF7A3FD10BDFFF742FD10BD90F871
:102FA0004030012B13B504465AD0012380F840303D
:102FB000CB0613D5D30611D503681022DA61436C12
:102FC00043F0040343641221FFF724FA2046FFF77D
:102FD000F8F9002084F8400002B010BD080637D58B
:102FE000530635D523681A6822F040021A60628DB4
:102FF00092B242B35968638D9BB2FF2B8BBFFF2304
:10300000638D238523854FF000008CBF4FF08073C4
:103010004FF0007394F828200090C1F30901204676
:10302000FFF7DDF9638D228D9B1A9BB2638594F8BF
:103030004130222B23681A680CBF42F4004242F44C
:1030400080421A60C5E740212046FFF74BFDC0E7EC
:103050008806BED59306BCD52046FFF744FFB8E7E7
:103060000220B9E7406A0268536843F400435360A2
:103070001021FFF737BD406A026808B5536843F472
:1030800000435360826B00235363C26B536390F819
:103090004130602B05D1202380F84130FFF720FD1F
:1030A00008BDFFF71CFD08BD90F84120D2B2202AD0
:1030B00010B51DD190F84030012B19D0242380F891
:1030C000413003681C6824F001041C601C6824F46F
:1030D00080541C601C6821431960196841F001018B
:1030E0001960002380F8412080F84030184610BD58
:1030F000022010BD10B590F84140E4B2202C1CD144
:1031000090F84030012B18D0242380F84130036818
:103110001A6822F001021A601A6822F4706242EA08
:10312000012119601A6842F001021A60002380F838
:10313000414080F84030184610BD022010BD00000C
:103140002DE9F347054618B9012002B0BDE8F08724
:103150000368DF0711D42B689E0700F188802B6875
:103160001C0700F1FC802B68580700F14581AA6913
:10317000002A40F0DC810020E7E7BD4C636803F0E3
:103180000C03042B0AD0636803F00C03082B19D13D
:10319000636803F4C033B3F5803F13D14FF40033B9
:1031A00093FAA3F2216893FAA3F3B3FA83F303F03B
:1031B0001F03012202FA03F30B42CCD06B68002BF1
:1031C000C9D1C1E76B68B3F5803F1ED1236843F4D2
:1031D00080332360FEF7ACFE4FF4003680460127B3
:1031E00096FAA6F3226896FAA6F3B3FA83F303F0ED
:1031F0001F0307FA03F31342ADD1FEF799FEA0EBCC
:1032000008006428ECD903209FE70BBB236823F454
:1032100080332360236823F480232360FEF788FE35
:103220004FF400368046012796FAA6F3226896FAF4
:10323000A6F3B3FA83F303F01F0307FA03F3134271
:1032400089D0FEF775FEA0EB08006428ECD9DAE718
:10325000B3F5A02F236803D143F480232360B5E79F
:1032600023F480332360236823F48023B1E7804C68
:10327000636813F00C0F0AD0636803F00C03082B8B
:1032800025D1636803F4C033B3F5004F1FD1022387
:1032900093FAA3F2216893FAA3F3B3FA83F303F04A
:1032A0001F03012202FA03F30B4203D0EB6893429F
:1032B0007FF44AAF2168F82393FAA3F3B3FA83F2B9
:1032C0002B69934021F0F8021343236047E7EA6833
:1032D00001260AB396FAA6F3B3FA83F303F18453F3
:1032E00003F584139B0002271E60FEF721FE804633
:1032F00097FAA7F3226897FAA7F3B3FA83F303F0D8
:103300001F0306FA03F31342D4D1FEF711FEA0EB1C
:1033100008000228ECD976E796FAA6F3B3FA83F30D
:1033200003F1845303F584139B0002271A60FEF710
:10333000FFFD804697FAA7F3226897FAA7F3B3FA3E
:1033400083F303F01F0306FA03F313423FF407AFBE
:10335000FEF7EEFDA0EB08000228EBD953E76A69FF
:10336000434E444901241AB394FAA4F3B3FA83F305
:103370000B449B0002271C60FEF7DAFD804697FA9B
:10338000A7F397FAA7F397FAA7F3726A97FAA7F346
:10339000B3FA83F303F01F0304FA03F313427FF439
:1033A000E2AEFEF7C5FDA0EB08000228E7D92AE748
:1033B00094FAA4F3B3FA83F30B449B0002271A6038
:1033C000FEF7B6FD804697FAA7F397FAA7F397FAA8
:1033D000A7F3726A97FAA7F3B3FA83F303F01F0314
:1033E00004FA03F313423FF4BEAEFEF7A1FDA0EBD7
:1033F00008000228E7D906E71D4CE369D90034D458
:10340000E36943F08053E361E36903F08053019380
:10341000019B0126184F3B68DA052FD5AB68012BBD
:103420003DD1236A43F001032362FEF781FD0227A9
:103430008246B9464FF0010897FAA7F397FAA7F327
:10344000002B6CD0226A99FAA9F3B3FA83F303F044
:103450001F0308FA03F3134258D0002E3FF487AE3F
:10346000E36923F08053E36181E60026D2E700BFE1
:103470000010024020819010007000403B6843F42F
:1034800080733B60FEF754FD80463B68DB05C5D486
:10349000FEF74EFDA0EB08006428F6D9B3E63BBB6F
:1034A000236A23F001032362236A23F004032362C7
:1034B000FEF73EFD02278246B9464FF0010897FA13
:1034C000A7F397FAA7F373B3226A99FAA9F3B3FAA9
:1034D00083F303F01F0308FA03F31342BDD0FEF792
:1034E00027FD41F28833A0EB0A009842E7D98AE62B
:1034F000052B236A03D143F00403236291E723F0F1
:1035000001032362236A23F004038DE7FEF710FD15
:1035100041F28833A0EB0A0098428DD973E697FAFE
:10352000A7F3626A8FE797FAA7F3626ACDE7444C84
:10353000636803F00C03082B3FF406AE022A4FF039
:10354000807358D193FAA3F3B3FA83F303F184534E
:1035500003F584139B0000221A60FEF7E9FC4FF08C
:1035600000778046012697FAA7F3226897FAA7F317
:10357000B3FA83F303F01F0306FA03F3134233D1C4
:10358000E36A6A6A23F00F031343E36262682B6AFB
:10359000E96922F476120B43134363604FF08073A2
:1035A00093FAA3F3B3FA83F303F1845303F584137B
:1035B0009B004FF000751E60FEF7BAFC012607461F
:1035C00095FAA5F3226895FAA5F3B3FA83F303F00D
:1035D0001F0306FA03F313427FF4CDADFEF7A8FCF8
:1035E000C01B0228ECD90EE6FEF7A2FCA0EB0800F7
:1035F0000228B8D907E693FAA3F3B3FA83F303F1E9
:10360000845303F584139B0000221A60FEF790FC9C
:103610004FF000750746012695FAA5F3226895FA42
:10362000A5F3B3FA83F303F01F0306FA03F313427F
:103630003FF4A1ADFEF77CFCC01B0228ECD9E2E50B
:103640000010024011494B6803F00C02082A1AD1FD
:103650004FF4701292FAA2F20F20B2FA82F2C96A03
:1036600090FAA0F0B0FA80F001F00F0103F47013AB
:10367000D340C140064A0748415C0748B0FBF1F11E
:10368000D05C484370470448704700BF00100240B8
:10369000448E0208548E020800127A002DE9F0418F
:1036A0000D46044610B90120BDE8F0814C4A13686C
:1036B00003F007038B422ED32268910736D4D2073A
:1036C0003CD4474A136803F007039D4275D3226830
:1036D000444D12F0040F7CD1130706D56B682269A4
:1036E00023F4605343EAC2036B60FFF7ABFF6B68E0
:1036F000F02292FAA2F2B2FA82F203F0F003D3407F
:10370000394AD35CD840394B18600020FEF7CEFB15
:103710000020BDE8F081136823F007030B4313601A
:10372000136803F007039942BDD1C5E72D49A0688E
:103730004B6823F0F00303434B60C0E76268294EF7
:10374000012A27D14FF4003393FAA3F1316893FA99
:10375000A3F3B3FA83F303F01F0302FA03F30B425C
:10376000A1D0736823F003031A437260FEF7E0FBF5
:1037700041F2883807467368626803F00C03B3EBC4
:10378000820F9ED0FEF7D4FBC01B4045F3D9032027
:10379000BDE8F081022A0CBF4FF00073022393FAB8
:1037A000A3F1306893FAA3F3B3FA83F303F01F0392
:1037B000012101FA03F30342D2E7136823F0070360
:1037C0002B431360136803F007039D427FF46BAF34
:1037D0007DE76B68E16823F4E0630B436B607BE794
:1037E0000020024000100240688E0208E011002014
:1037F000084B4FF4E0625B6892FAA2F2B2FA82F2EE
:1038000003F4E063D340044AD35C044A1068D84010
:10381000704700BF00100240788E0208E0110020BF
:10382000084B4FF460525B6892FAA2F2B2FA82F24D
:1038300003F46053D340044AD35C044A1068D84070
:10384000704700BF00100240788E0208E01100208F
:1038500003682DE9F347DF03044623D59B4DEB694D
:10386000DE0000F1D780EB6943F08053EB61EB6938
:1038700003F080530193019B0126954F3B68D805C7
:1038800040F1CA802B6A13F4407340F0DA802B6A4F
:10389000626823F4407313432B621EB1EB6923F07B
:1038A0008053EB612068C30706D5884AA168136B73
:1038B00023F003030B431363870706D5834AE168AC
:1038C000136B23F440330B431363460706D57F4A3B
:1038D0002169136B23F440230B431363850606D53C
:1038E0007A4AE169136B23F010030B4313638103DE
:1038F00006D5764A616D536823F480030B43536009
:10390000420606D5714A216A136B23F020030B434C
:103910001363430306D56D4A616A136B23F04003BA
:103920000B431363070706D5684A6169136B23F4D9
:1039300040130B431363C60606D5644AA169136B93
:1039400023F440030B431363850506D55F4A216BBF
:10395000536823F400030B435360010606D55B4A0A
:10396000A16AD36A23F4F8730B43D362C20506D568
:10397000564AE16AD36A23F478530B43D362C304F3
:1039800006D5524A616B136B23F480730B431363A8
:10399000870406D54D4A216C136B23F400730B4347
:1039A0001363C60206D5494AA16B136B23F08073DB
:1039B0000B431363850206D5444AE16B136B23F076
:1039C00000730B431363410206D5404A616C136BCD
:1039D00023F480630B431363020206D53B4AA16CB8
:1039E000136B23F400630B431363C30106D5374AFB
:1039F000E16C136B23F400530B43136310F000705E
:103A00001CD0324A216D136B23F400430B43136324
:103A1000002013E0002630E73B6843F480733B60EE
:103A2000FEF786FA80463B68D9053FF52BAFFEF7D7
:103A30007FFAA0EB08006428F5D9032002B0BDE8A6
:103A4000F087626802F4407293423FF420AF296A23
:103A50004FF4803321F4407093FAA3F2DFF874E05E
:103A6000B2FA82F2724492000127176093FAA3F32C
:103A7000B3FA83F373449B0000221A60CA072862DA
:103A80007FF505AFFEF754FA4FF002088246C146B3
:103A900098FAA8F398FAA8F3A3B12A6A99FAA9F3B5
:103AA000B3FA83F303F01F0307FA03F313427FF41F
:103AB000EEAEFEF73DFA41F28833A0EB0A009842E1
:103AC000E6D9BAE798FAA8F36A6AE7E70010024075
:103AD000007000400081901003685A6822F0E002F4
:103AE0005A604268B2F5827F0AD18268B2F5004F0F
:103AF00002D0B2F5806F03D11A6822F040021A603A
:103B0000826AB2F5005F07D11A6822F400521A6087
:103B10001A6842F400521A60012380F85D300023D5
:103B200080F85C300320704770B505460C46164699
:103B30002B68986810F080000DD0621CF9D024B971
:103B40002846BDE87040FFF7C7BFFEF7F1F9801BBC
:103B50008442EDD8F4E770BDF7B506460C4615462D
:103B60001F463168886820400ED0B4F5C06F01BF91
:103B70000A7BD2B28DF807209DF807306B1CF1D07C
:103B800025B93046FFF7A8FF03B0F0BDFEF7D0F926
:103B9000C01B8542E5D8F4E770B513460D461646BE
:103BA0000A464FF4C0510446FFF7D6FF28B1236EF2
:103BB00043F02003236603200FE0324629462046C7
:103BC000FFF7B2FF0028F2D133462A464FF4C06116
:103BD0002046FFF7C1FF0028E9D170BD70B504464B
:103BE00000284ED00023836290F85D3003F0FF027E
:103BF0001BB980F85C2003F047FE0223216884F89B
:103C00005D300B68E26823F04003B2F5E06F0B60B3
:103C10004FF0000332D91846B2F5706F18BFA36297
:103C2000236B2BB9B2F5E06F8CBF02230123236312
:103C3000A6686368A56933432669334366693343DD
:103C4000E6693343266A3343A66A334305F40076B4
:103C500033430B60636A1A43636B2D0C1A4305F000
:103C600004052A4302434A60CB6923F40063CB6115
:103C700000200123206684F85D3070BD4FF4805031
:103C8000CCE7012070BD2DE9F3411E4690F85C3071
:103C9000012B04460D46904600F0B180012380F8C8
:103CA0005C30FEF745F9074694F85D00C0B2012884
:103CB00040F0A380002D57D0B8F1000F54D003235B
:103CC00084F85D30002323662364A4F83E80A4F8C2
:103CD0004430A4F846302365E364A3682068A563F4
:103CE000B3F5004F08BF0368A4F83C8004BF43F459
:103CF0008043036003685B065EBF036843F04003D4
:103D00000360E368B3F5E06F63683ED91BB1E38FEE
:103D10009BB2012B06D135F8023BC360E38F013B18
:103D20009BB2E387E38F9BB2A3B93A463146204664
:103D3000FFF732FF00285DD1A36833B901932368F0
:103D4000DA6801929B680193019B206E003018BFD6
:103D5000012009E023689A68900703D535F8022B03
:103D6000DA60DBE74EB90320012384F85D300023DD
:103D700084F85C3002B0BDE8F081711CD2D0FEF74F
:103D8000D7F8C01B8642CDD8EDE71BB1E38F9BB2BD
:103D9000012B0AD1E38F9BB2012B16D935F8023BD8
:103DA000C360E38F023B9BB2E387E38F9BB2002BA0
:103DB000BBD023689A68920712D5E28F92B2012A8B
:103DC0000BD935F8022BDA60EBE72B780373E38F1E
:103DD000013B9BB2E3870135E7E72A781A73F6E7E0
:103DE000002EC0D0731CE0D0FEF7A2F8C01B8642A4
:103DF000DBD8B8E7202323669EE70220B4E7022041
:103E0000B8E7000090F85C30012B10B5044668D08C
:103E1000012380F85C3090F85D00C0B298425ED11A
:103E2000002950D0002A4ED0032384F85D300023AF
:103E300023662364E2872365A4F84630E364A4F88C
:103E40004430A368A2872268606DA163B3F5004F78
:103E500002BF136843F480431360234BC362234BB8
:103E60008362234B036300234363536823F480433B
:103E70005360E368B3F5E06F0FD84369B3F5806F23
:103E80000BD1E38F13F0010F536820D123F480434B
:103E90005360E38FC3F34E03E387E38F0C329BB28F
:103EA000FEF711F923681A6852065EBF1A6842F0DD
:103EB00040021A605A6842F020025A605A6842F082
:103EC00002025A600020002384F85C3010BD43F4E5
:103ED00080435360E38FC3F34E030133DCE70220DA
:103EE000F1E7022010BD00BFF73E0008253F0008A3
:103EF000033F0008704708B5406AFFF7FBFF08BDA5
:103F00007047406A026808B5536823F003035360A2
:103F1000036E43F010030366012380F85D30FFF762
:103F2000EFFF08BD37B50546446AFEF701F82B6878
:103F30001B689B06024626D42368596821F020019D
:103F40005960596821F00201596020466421FFF749
:103F500023FE18B1236E43F020032366A36833B910
:103F600001932368DA6801929B680193019B002307
:103F7000E387012384F85D30236E23B12046FFF7E9
:103F8000BFFF03B030BD204603F0AAFAF9E70000F6
:103F9000036830B559689A6802F04105012D85B073
:103FA000044605D14D0603D5C36C984705B030BD16
:103FB000950704D5080602D5236D2046F5E712F4CF
:103FC000B07FF3D08D06F1D550060FD594F85D0083
:103FD00003284FF0000541D0206E40F00400206619
:103FE0000095D868009098680090009895060CD5C8
:103FF000206E40F001002066002002909868029038
:10400000186820F0400018600298D00508D5226E8C
:1040100042F008022266002203929A680392039AF1
:10402000226E002AC2D05A6822F0E0025A600122B1
:1040300084F85D208A0718D05A68A06D22F0030228
:104040005A6018B10B4B4363FEF77AF8606D002895
:10405000ACD0084B4363FEF773F8A7E70195DA6825
:1040600001929B680193019BA0E72046FFF748FF60
:104070009CE700BF7940000808B5406A0023A0F81B
:104080004630C387FFF73CFF08BD70477047704755
:104090007047704703681A69910710B504460FD539
:1040A000DA6892070CD56FF002021A619B6901224F
:1040B0009907027700F08580FFF7E9FF0023237757
:1040C00023681A69520710D5DA6850070DD56FF0CA
:1040D00004021A619B69022213F4407F2277204672
:1040E00075D0FFF7D4FF0023237723681A691107DF
:1040F0000FD5DA6812070CD56FF008021A61DB6978
:1041000004229B072277204667D0FFF7C0FF0023D9
:10411000237723681A69D00610D5DA68D1060DD541
:104120006FF010021A61DB69082213F4407F2277D6
:10413000204658D0FFF7ABFF0023237723681A6986
:10414000D20708D5DA68D00705D56FF001021A61E9
:104150002046FFF79AFF23681A69110608D5DA6826
:10416000120605D56FF080021A61204600F0C7F8EC
:1041700023681A69D00508D5DA68110605D56FF4E9
:1041800080721A61204600F0BBF823681A69520653
:1041900008D5DA68500605D56FF040021A6120464E
:1041A000FFF777FF23681A69910622D5DA6892062D
:1041B0001FD56FF0200220461A61BDE8104000F0C4
:1041C0009DB8FFF763FF2046FFF762FF76E7FFF732
:1041D0005DFF2046FFF75CFF85E7FFF757FF2046AE
:1041E000FFF756FF93E7FFF751FF2046FFF750FF19
:1041F000A2E710BD324A0368904212D0B0F1804F5E
:104200000FD0A2F5943290420BD002F5806290421A
:1042100007D002F59632904203D002F5E052904268
:1042200015D14A6823F070031343254A90421DD0EC
:10423000B0F1804F1AD0A2F59432904216D002F518
:104240008062904212D002F5963290420ED01D4A02
:1042500090420BD002F58062904207D002F5806256
:10426000904203D002F50062904203D1CA6823F461
:10427000407313434A6923F08003134303608B6840
:10428000C3620B6883620E4B984213D003F5006340
:1042900098420FD003F5406398420BD003F580633A
:1042A000984207D003F58063984203D003F500637A
:1042B000984201D10B69036301234361704700BF3A
:1042C000002C01400040014010B50446A0B190F818
:1042D0003D3003F0FF021BB980F83C2003F01AFCCC
:1042E000022384F83D302068211DFFF783FF01235E
:1042F00084F83D30002010BD012010BD704770478C
:10430000704703681A6822F490721A609A6822F063
:1043100001029A60202380F86A30704790F86A3072
:10432000202B3DD1002939D0002A37D090F86830B1
:10433000012B35D0012380F8683083684165B3F5DF
:10434000805FA0F85820A0F85A2019D10369ABB9B2
:1043500040F2FF13A0F85C3000232222C36680F8ED
:104360006A20026880F86830916841F0010191602C
:10437000116841F49071116018467047FF23E9E716
:1043800023B90369002BF9D07F23E3E7B3F1805F02
:10439000E2D10369002BF7D03F23DBE70120704710
:1043A00002207047704708B5406A0023A0F85A30D1
:1043B000A0F85230FFF7F6FF08BD000038B50446FC
:1043C00005682169A268C36928680A4361690A43CC
:1043D00077491A4301400A432A606A68E168206A03
:1043E00022F440520A436A60A968A26921F430614C
:1043F00002430A43AA606F4A954212D102F558421D
:104400006D49126B02F00302B3F5004F8A5C66D06F
:10441000082A19D8DFE802F0C2929E18A9181818C5
:10442000AC00664A954224D102F5E632126B02F4E2
:104430004032B2F5803F00F0A08007D8002A00F09B
:10444000AA80B3F5004F76D0012038BDB2F5003F09
:1044500000F09980B2F5403FF3D1B3F5004F79D128
:104460006068430803F5740303F51053B3FBF0F3DE
:1044700054E0534A95420ED102F5E432126B02F435
:104480004022B2F5802F78D0D8D9B2F5002F7AD05B
:10449000B2F5402FE0E74B4A95420ED102F5E232E9
:1044A000126B02F44012B2F5801F66D0C6D9B2F585
:1044B000001F68D0B2F5401FCEE7434A9542C0D1F5
:1044C00002F5E032126B02F44002B2F5800F54D0D4
:1044D000B4D9B2F5000F56D0B2F5400FBCE7082AA8
:1044E00029D801A353F822F00D45000831450008F2
:1044F0006144000837450008814500083745000839
:1045000037450008374500088D450008FFF770F96A
:1045100061684A0802EB4003B3FBF1F39BB2002051
:1045200023F00F022168C3F342031343CB6038BD6D
:10453000FFF776F9ECE701200023F1E7FFF770F9C8
:10454000636800EB5300B0FBF3F01A4B80B2D86005
:10455000002038BD6268530803F5F40303F5905357
:10456000B3FBF2F39BB2EB60F2E7FFF76BF817E0F7
:104570006268530803F50043F2E7B3F5004FF4D146
:10458000FFF760F8C4E7B3F5004FF1D16068430866
:1045900003F580336AE7B3F5004FB7D0FFF728F98A
:1045A000636800EB5300B0FBF3F080B2E860CFE744
:1045B000F369FFEF00380140648E020800440040B8
:1045C00000480040004C004000500040436ADA07B9
:1045D00010B506D50168846A4A6822F40032224385
:1045E0004A609C0706D50168C46A4A6822F4803292
:1045F00022434A60590706D50168046B4A6822F4D1
:10460000802222434A601A0706D50168446B4A6833
:1046100022F4004222434A60DC0606D50168846B1E
:104620008A6822F4805222438A60990606D501687E
:10463000C46B8A6822F4005222438A605A060FD55E
:104640000168046C4A6822F480122243B4F5801F8A
:104650004A6005D14A68446C22F4C00222434A6091
:104660001B0606D50268816C536823F400230B43B4
:10467000536010BD2DE9F041069D04460F461646D5
:1046800098462168CA6937EA02030CBF012200225A
:10469000B24202D00020BDE8F0816B1CF2D09DB97F
:1046A00023681A6822F4D0721A609A6822F0010214
:1046B0009A60202384F8693084F86A30002384F8F3
:1046C00068300320BDE8F081FDF732FCA0EB080064
:1046D0008542D6D2E4E773B504460026C666FDF7E8
:1046E00027FC23681B681A07054617D423681B6834
:1046F0005B070AD56FF07E43009300222B464FF4F0
:1047000080012046FFF7B6FFA0B92023002084F8DF
:10471000693084F8680084F86A300CE06FF07E43FA
:104720000093324603464FF400112046FFF7A2FFE4
:104730000028DBD0032002B070BD10B5044660B382
:1047400090F8693003F0FF021BB980F8682003F08D
:104750001DFA2268242384F86930136823F00103CA
:1047600013602046FFF72AFE012816D0636A13B1B2
:104770002046FFF72BFF23685A6822F490425A60C4
:104780009A6822F02A029A601A6842F001022046D2
:104790001A60BDE81040FFF79EBF012010BD90F8E1
:1047A0006930212B27D1B0F8523002689BB24BB947
:1047B000116821F080011160116841F04001116021
:1047C000002070478368B3F5805FC36C0ED1016928
:1047D00061B933F8021BC1F308011185C364B0F855
:1047E0005230013B9BB2A0F85230E9E7591CC1643A
:1047F0001B781385F3E702207047016808B50B6842
:1048000023F040030B60202380F8693002F058FE4B
:10481000002008BD90F86A30222B10B5036829D11A
:10482000998C8368B0F85C20B3F5805F02EA0102DE
:10483000436D1BD10169C9B923F8022B4365B0F858
:104840005A40013CA4B2A0F85A406CB903681A68F7
:1048500022F490721A609A6822F001029A60202372
:1048600080F86A3002F01CFE002010BD591C416522
:104870001A70E4E79A6942F008029A61022010BDBA
:104880000268D369116870B513F00F05044607D1AB
:104890009E0605D58E0603D5BDE87040FFF7BABF6A
:1048A0009068002D5CD010F0010502D111F4907FCA
:1048B00056D0D80707D5CE0505D501201062E06E89
:1048C00040F00100E066980706D52DB10220106285
:1048D000E06E40F00400E0665E0706D52DB10420CE
:1048E0001062E06E40F00200E066180707D58E0601
:1048F00000D425B108201062E26E0243E266E26E47
:10490000002A50D0980604D58A0602D52046FFF723
:1049100081FFE36E1B07204604D423689D6815F0D1
:10492000400519D0FFF7EDFC23689A6856060FD5AD
:104930009A68606E22F040029A6048B11A4B436355
:10494000FDF7FEFB78B3606EBDE87040436B18471F
:104950002046FFF727FD70BDFFF724FDE56670BD1B
:10496000DD020ED546020CD54FF4801313622023CE
:1049700084F86930204684F86A30BDE8704000F061
:1049800015B81D0606D5080604D52046BDE87040BA
:10499000FFF705BF5A0606D54B0604D52046BDE8ED
:1049A0007040FFF72ABF70BDA7430008704780B46E
:1049B00085B000AF78600B46FB700023FB73FA7B79
:1049C0007B689B68002B00DA0733DB109A4226DAFB
:1049D0000023BB73BA7B7B685B689A421BDAFB7867
:1049E000012B0AD17B681A68FB7B9B0013441A6871
:1049F000BB7B1344FF221A7009E07B681A68FB7BBB
:104A00009B0013441A68BB7B134400221A70BB7BC3
:104A10000133BB73DEE7FB7B0133FB73CFE700BFE2
:104A20001437BD465DF8047B704780B483B000AF97
:104A300078600B46FB707B681A68FB789B00134418
:104A40001B6818460C37BD465DF8047B70470000B4
:104A500090B585B000AF78600B46FB701346BB7015
:104A6000BA787B689A60FA787B685A607B689B6842
:104A7000002B00DA0733DB102D4A934201D89B004C
:104A800001E04FF0FF33184603F02DF903461A46B4
:104A90007B681A600023FB73FA7B7B689B68002BA2
:104AA00000DA0733DB109A420FDA7B681A68FB7B67
:104AB0009B00D4187B685B68184603F014F9034622
:104AC0002360FB7B0133FB73E6E70023BB73BA7BF8
:104AD0007B689B68002B00DA0733DB109A4218DAF8
:104AE00000237B737A7B7B685B689A420DDA7B6874
:104AF0001A68BB7B9B0013441A687B7B134400221B
:104B00001A707B7B01337B73ECE7BB7B0133BB7398
:104B1000DDE77B6800221A777B6800225A777B6882
:104B200000229A777B6818461437BD4690BD00BFB7
:104B3000FEFFFF1F90B585B000AF786008461146B4
:104B40001A460346FB700B46BB7013467B70BB785E
:104B50001946786800F04FFABB78002B04D17B68C7
:104B6000DA687B689A610EE0BB78012B04D17B6820
:104B70001A697B689A6106E0BB78022B03D17B68D7
:104B80005A697B689A6197F82430DB08BB7397F801
:104B9000243003F007037B730023FB73FC7B7B68EB
:104BA0009B69184600F0B0FB03469C42B4BF01234A
:104BB0000023DBB2002B00F0C48197F82020FB7BA0
:104BC0001A447B685B689A4280F2BA817B78012B39
:104BD00040F0AD80BB7B7A689268D2B2D208D2B284
:104BE000934229DA7B689B69FA781146184600F0EF
:104BF0004BFB0246FB7B9B0013441A687B7B02FA4B
:104C000003F47B681A68BB7B9B0013441B68F97B29
:104C100097F820200A4413447A681168BA7B9200FE
:104C20000A441268F87B97F8201001440A4411786E
:104C3000E2B20A43D2B21A707B7B002B36D0BB7B28
:104C400001337A689268D2B2D208D2B293422DDA96
:104C50007B689B69FA781146184600F015FB0246FE
:104C6000FB7B9B0013441A687B7BC3F1080322FA89
:104C700003F47B681A68BB7B01339B0013441B68F9
:104C8000F97B97F820200A4413447A681168BA7BAC
:104C9000013292000A441268F87B97F82010014410
:104CA0000A441178E2B20A43D2B21A707B7B002B1D
:104CB00000F04281BB7B02337A689268D2B2D2089C
:104CC000D2B2934280F23881BB78022B40F034811B
:104CD0007B689B69FA781146184600F0D5FA0246BF
:104CE000FB7B9B0013441A687B7BC3F1100322FA01
:104CF00003F47B681A68BB7B02339B0013441B6878
:104D0000F97B97F820200A4413447A681168BA7B2B
:104D1000023292000A441268F87B97F8201001448E
:104D20000A441178E2B20A43D2B21A7004E17B78E5
:104D3000002B40F00181BB7B7A689268D2B2D20826
:104D4000D2B2934245DA7B681A68BB7B9B0013445E
:104D50001B68F97B97F820200A4413441B78002B2A
:104D60000CD17B681A68BB7B9B0013441B68F97BE2
:104D700097F820200A441344FF221A707B689B692D
:104D8000FA781146184600F07FFA0246FB7B9B003A
:104D900013441A687B7B02FA03F3DC437B681A68CE
:104DA000BB7B9B0013441B68F97B97F820200A44C7
:104DB00013447A681168BA7B92000A441268F87B3F
:104DC00097F8201001440A441178E2B20A40D2B2A6
:104DD0001A707B7B002B54D0BB7B01337A689268BE
:104DE000D2B2D208D2B293424BDA7B681A68BB7B4C
:104DF00001339B0013441B68F97B97F820200A4479
:104E000013441B78002B0DD17B681A68BB7B0133E0
:104E10009B0013441B68F97B97F820200A44134435
:104E2000FF221A707B689B69FA781146184600F0D9
:104E30002BFA0246FB7B9B0013441A687B7BC3F171
:104E4000080322FA03F3DC437B681A68BB7B013357
:104E50009B0013441B68F97B97F820200A441344F5
:104E60007A681168BA7B013292000A441268F87BB2
:104E700097F8201001440A441178E2B20A40D2B2F5
:104E80001A707B7B002B57D0BB7B01337A6892680A
:104E9000D2B2D208D2B293424EDABB78022B4BD1B7
:104EA0007B681A68BB7B02339B0013441B68F97B49
:104EB00097F820200A4413441B78002B0DD17B68FF
:104EC0001A68BB7B02339B0013441B68F97B97F87D
:104ED00020200A441344FF221A707B689B69FA78E9
:104EE0001146184600F0D0F90246FB7B9B001344A4
:104EF0001A687B7BC3F1100322FA03F3DC437B685F
:104F00001A68BB7B02339B0013441B68F97B97F83C
:104F100020200A4413447A681168BA7B0232920056
:104F20000A441268F87B97F8201001440A4411786B
:104F3000E2B20A40D2B21A70FB7B0133FB732DE65A
:104F400000BF00BF1437BD4690BD90B589B002AF19
:104F5000F860B96011461A460B46FB711346BB71E7
:104F6000FB791946F86800F046F8FB79002B04D16C
:104F7000FB68DA68FB689A610EE0FB79012B04D1CB
:104F8000FB681A69FB689A6106E0FB79022B03D182
:104F9000FB685A69FB689A610023FB75FC7DB86861
:104FA000FBF778F903469C4221D2FB689B691846BF
:104FB00000F0AAF903461A46FB7D12FB03F3DAB2AE
:104FC00097F828301344BB75FB7DBA6813441978F1
:104FD000B879FA7997F82C300193BB7D009303469A
:104FE000F868FFF7A7FDFB7D0133FB75D6E700BF2F
:104FF0001C37BD4690BD80B582B000AF78600B46CF
:10500000FB70FB78002B19D17B681B7F002B15D11F
:10501000102002F057FE034619460A46002313608B
:1050200053609360D3607B68D9607B68DB68184607
:1050300000F0AAF87B6801221A7739E0FB78012B8F
:1050400019D17B685B7F002B15D1102002F03AFE4E
:10505000034619460A460023136053609360D360E9
:105060007B6819617B681B69184600F0CDF87B6886
:1050700001225A771CE0FB78022B19D17B689B7FB9
:10508000002B15D1102002F01DFE034619460A46DA
:105090000023136053609360D3607B6859617B6821
:1050A0005B69184600F030F87B6801229A77FFE7C9
:1050B00000BF0837BD4680BD80B582B000AF7860C4
:1050C00039607B68012B0CD13B684FF6FF7293422D
:1050D00007D1064803F0E6F9054A0649034802F0FD
:1050E000ECFD00BF0837BD4680BD00BFA014002006
:1050F00000000020BD85000880B500AF4FF6FF71AD
:105100000120FFF7D9FF80BD90B585B000AF786072
:105110007B680B225A737B6812221A734FF4BE709D
:1051200002F0E1FD03461A467B689A600023FB7398
:10513000FB7B5E2B22DC082002F0C4FD03461C46EC
:10514000FB7B7A68527B02FB03F35B000D4A9918E4
:105150007B681A7B7B685B7B204601F061FC7B6887
:105160009A68FB7B9B0013441C60FB7B0133FB7341
:10517000DEE7204602F09DFD02F0B7FD00BF1437C8
:10518000BD4690BDAC09002090B585B000AF7860F9
:105190007B6806225A737B6808221A734FF4BE702C
:1051A00002F0A1FD03461A467B681A600023FB73D8
:1051B000FB7B5E2B22DC082002F084FD03461C46AC
:1051C000FB7B7A68527B02FB03F35B000D4A991864
:1051D0007B681A7B7B685B7B204601F021FC7B6847
:1051E0001A68FB7B9B0013441C60FB7B0133FB7341
:1051F000DEE7204602F05DFD02F077FD00BF1437C8
:10520000BD4690BD0400002090B585B000AF786029
:105210007B6807225A737B680A221A734FF4BE70A8
:1052200002F061FD03461A467B685A600023FB7357
:10523000FB7B5E2B22DC082002F044FD03461C466B
:10524000FB7B7A68527B02FB03F35B000D4A9918E3
:105250007B681A7B7B685B7B204601F0E1FB7B6807
:105260005A68FB7B9B0013441C60FB7B0133FB7380
:10527000DEE7204602F01DFD02F037FD00BF1437C7
:10528000BD4690BD7804002080B582B000AF786044
:105290000B46FB707B681B7B082B0DD17B681A6863
:1052A000FB7803F18043203B9B0013441B681846A6
:1052B00001F0F2FB034623E07B681B7B0A2B0DD138
:1052C0007B685A68FB7803F18043203B9B001344C2
:1052D0001B68184601F0E0FB034611E07B681B7B6E
:1052E000122B0DD17B689A68FB7803F18043203B39
:1052F0009B0013441B68184601F0CEFB0346FFE7F2
:1053000018460837BD4680BD80B483B000AF7860D2
:105310007B685B7B18460C37BD465DF8047B7047A5
:1053200080B582B000AF786039607B68012B0CD10A
:105330003B684FF6FF72934207D1064803F0B2F87C
:10534000054A0649034802F0B8FC00BF0837BD46CD
:1053500080BD00BFA414002000000020BD8500080F
:1053600080B500AF4FF6FF710120FFF7D9FF80BD78
:105370002DE9F041ADF5047D02AF3B1D1860102012
:1053800002F0A0FC03461C46204600F033FE3B1D05
:105390001B685C613B1D1B685C6907F124031846B0
:1053A00003F036F907F1240207F10C03EF49184620
:1053B00009F0D4FB07F10C0507F14003184603F090
:1053C00027F907F1400207F12803E949184609F0D7
:1053D000C5FB07F12806482002F074FC03469846F6
:1053E00000230093334607222946404601F0B0F8D7
:1053F0004146204600F010FF07F12803184609F047
:10540000DEF807F14003184603F003F907F10C0337
:10541000184609F0D4F807F12403184603F0F9F808
:105420003B1D1B685C6907F15C03184603F0F0F84C
:1054300007F15C0207F14403CE49184609F08EFBE0
:1054400007F1440507F17803184603F0E1F807F186
:10545000780207F16003C849184609F07FFB07F19D
:105460006006482002F02EFC034698460123009374
:10547000334602222946404601F06AF8414620465A
:1054800000F0CAFE07F16003184609F098F807F12A
:105490007803184603F0BDF807F14403184609F0F5
:1054A0008EF807F15C03184603F0B3F83B1D1B6848
:1054B0005C6907F19403184603F0AAF807F1940217
:1054C00007F17C03AD49184609F048FB07F17C055C
:1054D00007F1B003184603F09BF807F1B00207F19B
:1054E0009803A749184609F039FB07F198064820A8
:1054F00002F0E8FB034698460123009333466422FA
:105500002946404601F024F84146204600F084FE3A
:1055100007F19803184609F052F807F1B00318464E
:1055200003F077F807F17C03184609F048F807F113
:105530009403184603F06DF83B1D1B685C6907F186
:10554000CC03184603F064F807F1CC0207F1B4036A
:105550008C49184609F002FB07F1B40507F1E8038E
:10556000184603F055F807F1E80207F1D003864921
:10557000184609F0F3FA07F1D006482002F0A2FB22
:1055800003469846002300933346032229464046AB
:1055900000F0DEFF4146204600F03EFE07F1D0035A
:1055A000184609F00CF807F1E803184603F031F843
:1055B00007F1B403184609F002F807F1CC031846C6
:1055C00003F027F83B1D1B685C6907F582731846DA
:1055D00003F01EF807F5827207F1EC036B491846D9
:1055E00009F0BCFA07F1EC0507F59073184603F0D3
:1055F0000FF807F5907207F584736549184609F0AE
:10560000ADFA07F58476482002F05CFB0346984625
:1056100000230093334614222946404600F098FFA9
:105620004146204600F0F8FD07F58473184608F05F
:10563000C6FF07F59073184602F0EBFF07F1EC0385
:10564000184608F0BCFF07F58273184602F0E1FF28
:1056500007F59E73184602F0DBFF07F59E7207F50B
:1056600092734C49184609F079FA07F5927507F5D7
:10567000AC73184602F0CCFF07F5AC7207F5A073C7
:105680004549184609F06AFA07F5A076482002F065
:1056900019FB03461C460023009333460322294688
:1056A000204600F055FFC7F8044207F5A0731846DE
:1056B00008F085FF07F5AC73184602F0AAFF07F55E
:1056C0009273184608F07BFF07F59E73184602F0A8
:1056D000A0FF07F5BA73184602F09AFF07F5BA72F1
:1056E00007F5AE732D49184609F038FA07F5AE7480
:1056F00007F5C873184602F08BFF07F5C87207F567
:10570000BC732749184609F029FA07F5BC754820EB
:1057100002F0D8FA03461E46012300932B461422BA
:105720002146304600F014FF3146D7F8040200F05D
:1057300088FF07F5BC73184608F041FF07F5C873EA
:10574000184602F066FF07F5AE73184608F037FFFB
:1057500007F5BA73184602F05CFF07F5D6731846D2
:1057600002F056FF07F5D6721CE000BF508D02080C
:105770005C8D0208608D02086C8D0208708D020835
:105780007C8D0208808D02088C8D0208908D0208A5
:105790009C8D0208A08D0208A48D0208AC8D020821
:1057A000B08D020807F5CA73C849184609F0D6F942
:1057B00007F5CA7407F5E473184602F029FF07F5E8
:1057C000E47207F5D873C249184609F0C7F907F51E
:1057D000D875482002F076FA03461E46012300934E
:1057E0002B4614222146304600F0B2FE3146D7F84F
:1057F000040200F026FF07F5D873184608F0DFFE14
:1058000007F5E473184602F004FF07F5CA7318465B
:1058100008F0D5FE07F5D673184602F0FAFE07F534
:10582000F273184602F0F4FE07F5F27207F5E6731C
:10583000A849184609F092F907F5E67407F50073D0
:10584000184602F0E5FE07F5007207F5F473A24969
:10585000184609F083F907F5F475482002F032FA8A
:1058600003461E46012300932B4614222146304650
:1058700000F06EFE3146D7F8040200F0E2FE07F5B4
:10588000F473184608F09BFE07F50073184602F003
:10589000C0FE07F5E673184608F091FE07F5F273AF
:1058A000184602F0B6FE3B1D1B685B69D7F8041270
:1058B000184600F0B1FC3B1D1B6800E1204602F0D9
:1058C000F8F902F012FA404602F0F3F9FFE707F1A7
:1058D0002803184608F073FEFFE707F14003184657
:1058E00002F097FE07F10C03184608F068FEFFE788
:1058F00007F12403184602F08CFE02F0F6F9404648
:1059000002F0D7F9FFE707F16003184608F057FEE9
:10591000FFE707F17803184602F07BFE07F1440326
:10592000184608F04CFEFFE707F15C03184602F04A
:1059300070FE02F0DAF9404602F0BBF9FFE707F12A
:105940009803184608F03BFEFFE707F1B00318463E
:1059500002F05FFE07F17C03184608F030FEFFE717
:1059600007F19403184602F054FE02F0BEF94046D7
:1059700002F09FF9FFE707F1D003184608F01FFE79
:10598000FFE707F1E803184602F043FE07F1B4030E
:10599000184608F014FEFFE707F1CC03184602F0A2
:1059A00038FE02F0A2F9404602F083F9FFE707F55E
:1059B0008473184608F003FEFFE707F59073184656
:1059C00002F027FE07F1EC03184608F0F8FDFFE7A8
:1059D00007F58273184602F01CFE02F086F9204695
:1059E00002F067F9FFE707F5A073184608F0E7FD36
:1059F000FFE707F5AC73184602F00BFE07F592734C
:105A0000184608F0DCFDFFE707F59E73184602F024
:105A100000FE02F06AF9304602F04BF9FFE707F5A5
:105A2000BC73184608F0CBFDFFE707F5C8731846AE
:105A300002F0EFFD07F5AE73184608F0C0FDFFE772
:105A400007F5BA73184602F0E4FD02F04EF930464D
:105A500002F02FF9FFE707F5D873184608F0AFFDFD
:105A6000FFE707F5E473184602F0D3FD07F5CA73A4
:105A7000184608F0A4FDFFE707F5D673184602F0B4
:105A8000C8FD02F032F9304602F013F9FFE707F5DE
:105A9000F473184608F093FDFFE707F50073184606
:105AA00002F0B7FD07F5E673184608F088FDFFE73A
:105AB00007F5F273184602F0ACFD02F016F918462D
:105AC00007F50277BD46BDE8F08100BFB48D02083E
:105AD000B88D0208BC8D0208C08D020880B584B064
